:020000040800F2
:10000000684200200D020008113B0008E736000896
:100010000D3B0008510F0008DD47000800000000FC
:1000200000000000000000000000000001010008C6
:10003000A10F0008000000004501000885410008EC
:1000400027020008270200082702000827020008EC
:1000500027020008270200082702000827020008DC
:10006000270200082702000827020008550F000891
:10007000270200082702000827020008650F000871
:100080002702000827020008F90B000827020008D1
:10009000270200082702000827020008270200089C
:1000A00027020008954200082702000827020008DE
:1000B000A5420008270200082702000827020008BE
:1000C000270200082702000827020008270200086C
:1000D00027020008C9470008270200082702000875
:1000E000A30F00082702000827020008DFF80CD041
:1000F00000F038FD00480047A16100086842002078
:10010000224B19680868B0E8F00F80F30988BFF344
:100110006F8F4FF0000080F311884EF00D0E704786
:100120000000000006480068006880F3088862B696
:1001300061B6BFF34F8FBFF36F8F00DF00BF00BF0B
:1001400008ED00E0EFF30980BFF36F8F0F4B1A68E3
:1001500020E9F00F106008B54FF0500080F31188CF
:10016000BFF34F8FBFF36F8F08F01AFE4FF0000000
:1001700080F31188BDE8084019680868B0E8F00FFE
:1001800080F30988BFF36F8F704700BFB80100206C
:10019000EFF30580704700000246D2E84F0F411C84
:1001A000C2E8431F03B1F8E77047024652E8000F68
:1001B000411C42E8001303B1F8E77047024652E8D9
:1001C000000F42E8001303B1F9E77047024652E816
:1001D000000F830103D3BFF32F8F0020704700F07F
:1001E0000040084342E8000303B1F0E770470246CD
:1001F00052E8000F800103D2BFF32F8F0020704719
:1002000042E8001303B1F3E7012070470648804736
:1002100006480047FEE7FEE7FEE7FEE7FEE7FEE7EB
:10022000FEE7FEE7FEE7FEE73D420008ED000008BE
:10023000202A04DB203A21FA02F00021704721FA3B
:1002400002F3D040C2F120029140084319467047A2
:1002500010B5431A934209D28318881803E010F8A6
:10026000011D03F8011D521EF9D210BD40EA010321
:100270009B0703D009E008C9121F08C0042AFAD25C
:1002800003E011F8013B00F8013B521EF9D210BD0A
:10029000D2B201E000F8012B491EFBD270470022C8
:1002A000F6E710B513460A4604461946FFF7F0FF75
:1002B000204610BD30B504460020034600E05B1C1C
:1002C000934203D2E05CCD5C401BF8D030BDF0B46B
:1002D00080EA0102D40F4200B2EB410F02D2024683
:1002E000084611464A0042D0C30DDDB2C1F3C752E1
:1002F000AD1A202D35DAC1F3160141F4000204B124
:100300005242C5F1200602FA06F12A411044B3EB2D
:10031000D05F23D0C4B1012DA0EBC35009DCF0BCE9
:100320004FF0004202EAC352DBB200F5000000F0D9
:100330005EBB400000F1807000EBC350A0F1807004
:1003400040EAD170490009E0490841EAC071A0EBD8
:10035000C35000F50000400800EBC350F0BC00F0B3
:100360003DBB6142012202EB4101001BF6E7F0BCFC
:10037000704781F00041AAE780F00040A7E780EADB
:10038000010210B502F00043400022D04A001FD005
:10039000010E01EB1261C0F35600C2F3560240F4A5
:1003A000000042F40002A0FB022000047F39140484
:1003B00000D0401C50EA124001D44000491EC2B295
:1003C0000C0604EBD010401C4008802A02D003E049
:1003D000002010BD20F00100002900DA00201843A1
:1003E00010BD30B480EA010202F0004530F0004256
:1003F00021F0004013D090B1C30DD40DC2F316010B
:10040000C0F31600E41A41F4000140F400027D3408
:10041000914201D3641C00E04900002C02DA30BC98
:10042000002070474FF400000023914201D3891A45
:10043000034340084FEA4101F7D151B1914202D143
:100440004FF0004105E002D24FF0010101E06FF0F2
:10045000010103EBC450284430BC00F0BFBA2DE9C1
:10046000FE4F804681EA0300C00F0C46009021F049
:10047000004123F00045B8EB0200A94105D24046F7
:10048000214690461C460B46024623F0004010438E
:1004900047D0270DC7F30A00C3F30A510290401A50
:1004A000019040286BDAC3F3130040F4801B0098DE
:1004B000924620B10023D2EB030A63EB0B0B0198A9
:1004C0005946C0F14002504600F067FA06460D4614
:1004D00050465946019A00F06FFA10EB080061414E
:1004E000002487EA115284EAE7731A4340D0009A45
:1004F00062B3019A012A4FEA075215DC001B61EB37
:1005000002014FF0004202EA0752CDE90042001C0E
:1005100041F5801132462B4600F0D5FA03B0BDE814
:10052000F08F40462146F9E7001B61EB0201001CF9
:1005300041F5801300185B412018A2F5001747EB26
:10054000030140EAD570B6196D4111E06D084FEA1C
:10055000360645EAC0754FEA0752001B61EB0201FF
:10056000001C41F5801149084FEA30000019514143
:1005700032462B4603B0BDE8F04F00F095BA009824
:10058000012240000023D0EB020263EBE0730098ED
:1005900021464FEAE074B8EB000061EB0401E9E7A3
:1005A00083F000435BE781F0004158E72DE9FE4FFF
:1005B00081EA030404F0004421F0004100944FF06C
:1005C000000B23F0004350EA01045ED052EA03041A
:1005D0005BD0C3F30A54C1F30A552C44A4F2F3349C
:1005E0000194A0FB0254C1F3130141F48011C3F341
:1005F000130343F4801301FB024400FB034E840AFF
:10060000970A44EA815447EA8357A4FB0768029596
:100610008D0A05FB07854FEA932C04FB0C54270534
:10062000029D4FEA065847EA1637B5EB08056EEB10
:10063000070C870E920E47EA811742EA8312A7FB46
:100640000201B6EB0B0164EB00042B0D43EA0C3303
:100650005E1844EB1C50DA465146E7FB0201C5F335
:1006600013044FEA0B3343EA14534FEA0432019C5C
:1006700043EA0603A4F10C040294009CCDE900B403
:1006800000F021FA03B0BDE8F08F00200146F9E741
:100690002DE9F04D81EA030404F0004B21F0004500
:1006A00014464FF0000A23F0004150EA050220D022
:1006B00054EA01021DD0C5F30A570246C5F31303DD
:1006C000C1F31300C1F30A5640F4801543F48013BC
:1006D000A7EB0608101BD64608F2FD3873EB0500A1
:1006E00002D308F1010801E092185B41B8F1000F54
:1006F00003DA00200146BDE8F08D00204FF48011A0
:10070000064684460EE0171B73EB050705D3121B44
:1007100063EB050306434CEA010C49084FEA30003D
:1007200092185B4150EA0107EDD152EA030012D062
:1007300082EA040083EA0501084305D0101BAB419F
:1007400006D20122002306E000224FF0004302E01F
:100750006FF0010253101AEB06004CEB085110EB3E
:100760000A0041EB0B01BDE8F04D00F09DB9C10F4F
:1007700080EAE0700844CA079623002100F037B9E8
:1007800096230022114600F032B90EB5C10F80EA5F
:10079000E0700844CA07002140F233438DE80E00A0
:1007A0000A460B4600F08FF903B000BD0EB540F2CB
:1007B000334102910021CDE900110A460B4600F0B9
:1007C00082F903B000BD00F0004220F00040C10DEE
:1007D000C0F3160040F400007F2901DA00207047C2
:1007E000962903DCC1F19601C84001E096398840A2
:1007F000002AF4D04042704720F00040C10DC0F301
:10080000160040F400007F2901DA00207047962985
:1008100003DCC1F19601C8407047963988407047A3
:10082000C1F30A5210B5C1F3130140F2FF3341F492
:1008300080119A4201DA002010BD40F233439A42FF
:10084000A2F2334203DC5242FFF7F2FC10BD9040AB
:1008500010BD00F0004230F000400AD0C10D01F59B
:100860006071C0F3160042EA0151C208400711430B
:10087000704700200146704730B5041E71F1000436
:1008800004DB4FF00044404264EB0101141E73F19D
:10089000000405DB1C464FF00043524263EB0403A7
:1008A0008B4208BF824230BD30B5041E71F1000496
:1008B00004DB4FF00044404264EB0101141E73F16D
:1008C000000405DB1C464FF00043524263EB040377
:1008D000994208BF904230BD01F0004330B421F08E
:1008E000004150EA010206D00A0DA2F56072C1F380
:1008F0001301002A02DC30BC00207047440F44EA98
:10090000C104C100E01830BC00EBC25000F066B872
:10091000002801DBC0F10040002901DBC1F10041EA
:1009200081427047002801DBC0F10040002901DB53
:10093000C1F10041884270472DE9F05F0546002073
:1009400092469B4688460646814640241BE0284640
:10095000414647462246FFF76BFC53465A46C01AAB
:10096000914110D311461846224600F016F82D1A70
:1009700067EB01084F4622460120002100F00DF8E8
:1009800017EB00094E41201EA4F10104DFDC4846AC
:1009900031462A464346BDE8F09F202A04DB203A30
:1009A00000FA02F1002070479140C2F1200320FAC2
:1009B00003F3194390407047202A06DBCB17203AF7
:1009C00041FA02F043EAE07306E041FA02F3D04054
:1009D000C2F1200291400843194670470029A8BF80
:1009E0007047401C490008BF20F00100704710B458
:1009F000B0FA80FC00FA0CF050EA010404BF10BC0D
:100A0000704749B1CCF1200421FA04F411FA0CF139
:100A100018BF012121430843A3EB0C01CB1D4FEA72
:100A200000614FEA102042BF002010BC704700EB6D
:100A3000C35010440029A4BF10BC7047401C49009B
:100A400008BF20F0010010BC7047F0B4002802DCA1
:100A5000F0BC00207047C0F3C751C0F3160040F44B
:100A60000000CA0701D14000491E3F2202EB610588
:100A7000002211464FF4000626FA01F31344D4185D
:100A8000844201D8001B1A464000491C1729F3DD97
:100A90005100814202D24FF0FF3100E0002102EB11
:100AA000C550F0BCFFF79ABF10B5141E73F10004D7
:100AB00008DA401C41F1000192185B411A4301D150
:100AC00020F0010010BD2DE9F04D92469B4611B17A
:100AD000B1FA81F202E0B0FA80F220329046FFF7DC
:100AE0005CFF04460F4640EA0A0041EA0B01534608
:100AF0005A46084313D0114653EA010019D0C8F1F1
:100B000040025046FFF794FB05460E4650465946B4
:100B10004246FFF742FF084305D0012004E020468B
:100B20003946BDE8F08D0020054346EAE0762C43C7
:100B300037430A986305E40AA0EB08000022FD0A87
:100B400044EA47540A3002D500200146E9E701058E
:100B500010196941DDE9084500196941BDE8F04D0A
:100B6000A2E70000064C074D06E0E06840F00103F4
:100B700094E8070098471034AC42F6D3FFF7BAFA6E
:100B800044AF000864AF0008420005D0C0F3C7526C
:100B90005242914201DC0020704700EBC150704787
:100BA00070B58C1810F8015B15F0070301D110F82F
:100BB000013B2A1106D110F8012B03E010F8016B5C
:100BC00001F8016B5B1EF9D12B0705D40023521EDF
:100BD0000DD401F8013BFAE710F8013BCB1A921C47
:100BE00003E013F8015B01F8015B521EF9D5A14245
:100BF000D8D3002070BD000010B5024800F087FD7A
:100C000010BD00004C06002070B504460025206889
:100C1000806800F00100F0B12068806820F00100D9
:100C20002168886001F03EFC05460EE001F03AFCC8
:100C3000401B022809D9A06A40F01000A062E06AB7
:100C400040F00100E062012070BD2068806800F083
:100C500001000028EAD10020F6E770B505466C6A6D
:100C6000A06A00F05000E0B9A06A40F40070A062F1
:100C70002068806800F46020B0F5602F0DD1207BE3
:100C800058B9A06A20F48070A062A06A00F4805075
:100C900018B9A06A40F00100A062204600F034FDBF
:100CA00003E0206A016B2846884770BD70B5054691
:100CB0006C6AA06A40F04000A062E06A40F0040064
:100CC000E062204600F022FD70BD70B50446656A02
:100CD000284600F01AFD70BD38B5044600250020F6
:100CE00000902068806800F0010080BB2068806868
:100CF00040F0010021688860164800681649B0FB82
:100D0000F1F0009002E00098401E0090009800284A
:100D1000F9D101F0C7FB054613E001F0C3FB401B0E
:100D200002280ED9A06A40F01000A062E06A40F0EC
:100D30000100E06200BF002084F8240000BF012011
:100D400038BD2068806800F001000028E5D0002050
:100D5000F6E70000B401002040420F002DE9FF5FDC
:100D600083467548B0F82C01800BE8BB7249B1F896
:100D70002C11C1F3C611704ADBF8000042F82100C3
:100D80001046B0F82C01C0F3C6126B486430DBF893
:100D9000041040F822106438B0F82C01C0F3C613D8
:100DA0006548B0F82C01C009401C6349B1F82C110A
:100DB00060F3CD116048DBF80820A0F82C11C83092
:100DC00040F82320C838B0F82C01C0F3C61018280A
:100DD00009DD5948B0F82C0120F4404000F580406E
:100DE0005549A1F82C01A5E0FFE74FF0000A66E0A5
:100DF00000210C460D460E460F460291039188468F
:100E000032E00AEB08014C4A52F82100FFF721FDBD
:100E100022462B46CDE90001FFF721FB04460D4693
:100E20000AEB08024449643151F82200FFF711FD32
:100E300032463B46CDE90001FFF711FB06460F465F
:100E40000AEB08023C49C83151F82200FFF701FDC6
:100E5000CDE90001DDE90223FFF701FBCDE9020145
:100E600008F1010000F0FF08B8F1040FC9DB00220F
:100E7000324B20462946FFF70BFC8046FFF72CFD3E
:100E80002F4941F82A0000222C4B30463946FFF703
:100E9000FFFB8046FFF720FD2A4941F82A00002287
:100EA000264BDDE90201FFF7F3FB8046FFF714FD57
:100EB000254941F82A000AF1010000F0FF0ABAF1C1
:100EC000140F95DB60221C49091D081FFFF7C0F9AC
:100ED000602219496831081FFFF7BAF960221649E4
:100EE000CC31081FFFF7B4F91349DBF8000008669E
:100EF0001148DBF80410C0F8C410DBF80810C0F883
:100F00002811114AD16C1068FFF733FA0446FFF735
:100F10005AFC40B20D49C8710A4AD16C1068FFF7FB
:100F200028FA0446FFF74FFC41B208480172014617
:100F3000C86D8047BDE8FF9F880C0020000014406A
:100F4000B80D0020080E0020580E0020400100209F
:100F500000BFFEE710B5024800F0B2FE10BD000071
:100F60007C06002010B5024800F0AAFE10BD00006B
:100F7000E80B002030B590F840500124AC40C56B20
:100F80006C60046863604468102C04D10468A2603B
:100F90000468E16003E00468A1600468E26030BDB9
:100FA000704710B54FF4805001F0C8F810BD00BF75
:100FB000FEE700000146074A12780AB9002008E05F
:100FC000054AC1F3C623D25CC1F30223DA4002F022
:100FD00001007047403E0020C03D002070B500BFBA
:100FE0000C48866900F0EAF9054600BF2946094821
:100FF0001830FFF7E3F8044600BFB442F0D1A54231
:1010000006D200BF03481030FFF7CFF800BF00BF83
:10101000284670BD403E00202DE9FC470446884626
:101020001546B8F1000F01D0802D02D90020BDE88F
:10103000FC872046FFF7BEFF08B90120F7E7FFF75E
:10104000CDFF8246A4B200BFEFF3058010B14FF48C
:10105000002000E000200443464645B900231A461C
:101060005146204600F064F807463846DFE7082D71
:1010700016D80020009001902A4631466846FFF7B6
:10108000E7F84FF4E02000EA0540044344F04070E4
:101090005146DDE9002300F04BF807463846C6E725
:1010A00000F072FA4FF4E02101EA00493068009044
:1010B000706801900836083D44EA090444F08070E5
:1010C0005146DDE9002300F033F807460FB9002050
:1010D000ADE74FF6017049EA000410E03068009077
:1010E000706801900836083D51462046DDE900232E
:1010F00000F01EF80746641C0FB9002097E7082D82
:10110000ECD80020009001902A4631466846FFF74F
:101110009FF824F47F4444EA052444F000705146CB
:10112000DDE9002300F004F8074638467FE70000B9
:101130002DE9FF4F81B0884691469A464FF0070B44
:1011400051E000BF2E48FFF730F8064606F03F009A
:101150002C4901EB0014B0094FF4700101EA005171
:101160000091DDE9001008434FF0805101EAD801F9
:1011700008434FF0005101EA990108434FF08041C4
:1011800001EA5A01084340F04065294604F10C0089
:10119000FFF71CF8054605F0806010B385F0806508
:1011A00085F0004505F0004728F0004038432060F6
:1011B00029F00040384360602AF000403843A060C6
:1011C000294604F10C00FFF712F848B100BF0C48A3
:1011D000001DFEF7EAFF00BF012005B0BDE8F08F5B
:1011E00004E0ABF1010BBBF1000FAAD100BF00BFBF
:1011F00003480830FEF7D9FF00BF0020EDE70000EC
:10120000443E0020C0390020F0B506460C46154685
:10121000FF2C01D2FF2D01D30020F0BD00220023BE
:101220001AE0012098403040A0B1214610E002EBC6
:10123000D1000B4F385C01F0070C012707FA0CF7BF
:10124000384302EBD107DFF818C00CF80700491C3F
:10125000A942ECD920325B1C042BE2D30120DCE74D
:10126000C03D00202DE9F05F8246894600204149BB
:10127000087080214048FFF712F818213F4803F01A
:101280008CFE80463B48006A3D49884208D00846AB
:10129000384908620846A0F802800120C8610FE0C2
:1012A00034484088404506D03248A0F802800120EA
:1012B0003049C86104E02F48C069401C2D49C8610D
:1012C0002C48C06901280BD100202A494870486089
:1012D0008860C8604FF480612A48FEF7E0FF0FE0A5
:1012E00000270BE0274800EB0715E86800F0806056
:1012F00018B1E86820F04060E8607F1C402FF1D30F
:101300001C48C06901280FD100F064F804461CB1E4
:1013100000F05AF8064600E0002616484661002014
:1013200014498861086102E000F054F80446ECB109
:10133000FE2200215046FFF767FFEF2211460F20E3
:10134000FFF762FFFE2211460420FFF75DFFFFF763
:1013500045FE8346074800235946C2690A48FFF7FD
:10136000E7FEB9F1000F01D000F010F82046BDE80B
:10137000F09F0000403E0020C03D00202CAE000841
:101380006B27A5E1C039002000FF000310B5094814
:10139000007808B1012010BD012006490870FFF750
:1013A0001DFE044600231A4621460348FFF7C0FEEF
:1013B0000120F0E7403E002001FF000301484068A3
:1013C00070470000001000E001480068704700000E
:1013D000B40100200648006840F0807004490860AD
:1013E0000448006840F0010002490860012070478D
:1013F000FCED00E0001000E00021074AD161074940
:10140000096941F00401054A11611146096941F079
:101410004001116170470000780F00200020024059
:101420000021074AD1610749096941F00201054AD3
:10143000116111464861096941F04001116170472D
:10144000780F0020002002400022054BDA61054A97
:10145000126942F00102034B1A61018070470000DB
:10146000780F00200020024000201E49C96801F0CA
:10147000100139B11C49C96941F002011A4AD16110
:1014800040F010001749C96801F0040139B116494C
:10149000C96941F00101144AD16140F004001149C9
:1014A000C96901F0010169B10F49C96941F004013D
:1014B0000D4AD16100BF0B49C96921F00101094AF8
:1014C000D16100BF00BF40F20111884206D1054939
:1014D000C96921F00101034AD16101E00149C860F5
:1014E00000BF704700200240780F002070B504460E
:1014F00000F0D8FF054609E0601C38B124B100F0C7
:10150000D1FF401BA04201D9032070BD1248C06822
:1015100000F001000028EFD10F48C06800F0200063
:1015200020B100BF20200C49C86000BF0A48C06835
:1015300000F0100048B90848C06900F0010020B967
:101540000548C06800F0040018B1FFF78DFF0120C6
:10155000DBE70020D9E70000002002402DE9F04140
:1015600004460E46174600250AE036F815C06246C6
:1015700000232146012000F069FDA41C681C85B2EF
:10158000BD42F2DBBDE8F08110B50248FEF704FE73
:1015900010BD0000413E0020014800887047000057
:1015A0003E0000207047000038B5024600230020AE
:1015B000009000BF92F82400012801D1022038BD1C
:1015C000012082F8240000BF4868072812D2106862
:1015D000406B0C79641E04EB84051F24AC40A043CF
:1015E0000D796D1E05EB85050C68AC402043146831
:1015F000606327E048680D2812D21068006B0C79F0
:10160000E41F04EB84051F24AC40A0430D79ED1FBB
:1016100005EB85050C68AC4020431468206311E09D
:101620001068C06A0C790D3C04EB84051F24AC40A3
:10163000A0430D790D3D05EB85050C68AC402043BA
:101640001468E06208680A2812D31068C0680C7831
:101650000A3C04EB44050724AC40A0430D780A3D46
:1016600005EB45058C68AC4020431468E0600FE052
:10167000106800690C7804EB44050724AC40A043D3
:101680000D7805EB45058C68AC402043146820615B
:101690000868102802D00868112827D1174C106854
:1016A000A0421ED11068806800F40000F0B91068F4
:1016B000806840F400001468A0600868102815D104
:1016C0000F4800680F4CB0FBF4F000EB80004000C6
:1016D000009002E00098401E009000980028F9D188
:1016E00004E0906A40F020009062012300BF0020D7
:1016F00082F8240000BF184661E700000024014082
:10170000B401002040420F0070477047704710B589
:1017100004462068406800F0200020282FD120686F
:10172000006800F00200022829D1A06A00F0100031
:1017300018B9A06A40F40070A0622068806800F4C4
:101740006020B0F5602F13D1207B88B920684068F5
:1017500020F0200021684860A06A20F48070A06218
:10176000A06A00F4805018B9A06A40F00100A0629D
:101770002046FFF7C9FF6FF012002168086020685B
:10178000406800F0800080283BD12068006800F0AD
:101790000400042835D1A06A00F0100018B9A06A2E
:1017A00040F40050A0622068806800F4E040B0F58A
:1017B000E04F0DD02068406800F48060D0B9206808
:1017C000806800F46020B0F5602F13D1207B88B9C9
:1017D0002068406820F0800021684860A06A20F4FA
:1017E0008050A062A06A00F4807018B9A06A40F02E
:1017F0000100A0622046FFF7D5FE6FF00C002168C3
:1018000008602068406800F0400040280FD1206840
:10181000006800F0010050B1A06A40F48030A0627E
:10182000204600F0A7F86FF001002168086010BDA5
:101830002DE9F0410446002700250026A84614B9EA
:101840000120BDE8F081A06810B1207D00B100BF8B
:10185000A06A30B90020E06284F82400204600F03D
:101860008BF82046FFF7D0F90746A06A00F0100079
:10187000002873D1002F71D1A06A20F4885040F065
:101880000200A062E16960680843217B40EA4100F0
:101890000643A068B0F5807F02D0A068012802D17D
:1018A0004FF4807000E000200543207D012811D115
:1018B000207B38B9A069401E4FF4006141EA4030F6
:1018C000054307E0A06A40F02000A062E06A40F013
:1018D0000100E0622068406820F4694028432168E4
:1018E000486020688068214908403043216888604A
:1018F000A068B0F5807F02D0A068012802D14FF423
:10190000807000E00020B0F5807F03D1208A401E67
:101910004FEA00582068C06A20F4700040EA0800CE
:101920002168C8622068806811490840B04208D127
:101930000020E062A06A20F0020040F00100A062F6
:1019400011E0A06A20F0020040F01000A062E06AFE
:1019500040F00100E062012705E0FFE7A06A40F0E7
:101960001000A062012738466BE70000FDF7E1FF99
:10197000FE0E1FFF7047000010B586B00446002021
:10198000029003900490059026492068884247D130
:1019900000BF2548806940F40070234988610846EB
:1019A000806900F40070019000BF00BF00BF0846CE
:1019B000806940F0040088610846806900F00400F6
:1019C000019000BF00BFF82002900320039002A9FD
:1019D000164800F0C1FB1648164908600020486010
:1019E0000021144881608021C160490001618900A3
:1019F0004161002181614FF40051C16100F02EFA74
:101A000008B1FFF7D4FA00BF0A482062446200BF61
:101A100000220521122000F0EFFD122000F0DCFD75
:101A200006B010BD00240140001002400008014033
:101A3000080002407C0600202DE9F04104460D46D6
:101A40001646002757492068884203D05649206827
:101A5000884205D15348001D006800F4702000E062
:101A6000002000287ED100BF94F82400012802D174
:101A70000220BDE8F081012084F8240000BF204648
:101A8000FFF72AF90746002F6DD1A06A40F60161E1
:101A9000884340F48070A06243492068884209D19D
:101AA0004048001D006800F4702008B9012002E0E1
:101AB000002000E0012078B1A06A20F48010A0622C
:101AC0002068406800F4806000B3A06A20F40050F1
:101AD00040F48050A06219E0A06A40F48010A06237
:101AE00030492068884203D02F492068884205D1B8
:101AF0002C48001D006800F4806000E0002028B140
:101B0000A06A20F4005040F48050A062A06A00F463
:101B1000805020B1E06A20F00600E06201E0002081
:101B2000E06200BF002084F8240000BF1F48216A43
:101B300088621F48216AC8621E48216A08636FF0E4
:101B40000200216808602068806840F48070216885
:101B50008860226802F14C0133462A46206A00F070
:101B6000B1F901E01AE014E02068806800F4602018
:101B7000B0F5602F06D12068806840F4A00021688D
:101B800088600CE02068806840F4801021688860DC
:101B900005E000BF002084F8240000E0012738465B
:101BA00067E7000000240140002801405B0C0008AA
:101BB000CB0C0008AD0C00080146002291F8210072
:101BC000022808D00420886300BF002081F820008C
:101BD00000BF012070470868006820F00E000B6805
:101BE00018600868006820F001000B68186091F820
:101BF000403001209840CB6B5860012081F82100D3
:101C000000BF002081F8200000BF1046E2E700007E
:101C100070B50446002594F82100022803D0042062
:101C2000A063012548E02068006820F00E002168CC
:101C300008602068006820F00100216808601F49E2
:101C40002068884201D1012026E01C491431206817
:101C5000884201D110201FE01849283120688842AD
:101C600001D1801518E015493C312068884201D126
:101C7000801411E0114950312068884202D14FF49C
:101C8000803009E00D4964312068884202D14FF468
:101C9000801001E04FF08070084908394860012049
:101CA00084F8210000BF002084F8200000BF606B92
:101CB00010B12046616B8847284670BD080002407D
:101CC00070B50446E06B05682068066894F840101B
:101CD000042088402840002846D006F00400002850
:101CE00042D02068006800F0200028B92068006811
:101CF00020F004002168086057492068884201D11B
:101D0000042027E0544914312068884201D1402042
:101D100020E0514928312068884201D1001519E09E
:101D20004D493C312068884202D14FF4804011E097
:101D3000494950312068884202D14FF4802009E09F
:101D4000454964312068884202D14FF4800001E0A7
:101D50004FF08060404908394860E06A00287AD036
:101D60002046E16A884776E094F8401002208840D7
:101D70002840A0B306F0020088B32068006800F095
:101D8000200040B92068006820F00A00216808603F
:101D9000012084F8210030492068884201D10220C6
:101DA00028E02D4914312068884201D1202021E00B
:101DB000294928312068884201D140151AE0264976
:101DC0003C312068884202D14FF4005012E0224991
:101DD00050312068884203D14FF400300AE017E008
:101DE0001D4964312068884202D14FF4001001E09F
:101DF0004FF0007018490839486000BF002084F88F
:101E0000200000BFA06A30B32046A16A884722E0C4
:101E100094F84010082088402840E0B106F00800FF
:101E2000C8B12068006820F00E002168086094F8AE
:101E3000401001208840E16B48600120A06384F8D5
:101E4000210000BF002084F8200000BF206B10B1EB
:101E50002046216B884770BD0800024001460022E1
:101E600009B901207047164B0868C01A1423B0FB4B
:101E7000F3F08000086412480838C863022081F833
:101E800021000868026843F6F0708243D1E901033B
:101E90001843CB6818430B6918434B6918438B6987
:101EA0001843CB6918430243086802600020886326
:101EB000012081F82100002081F8200000BFD1E737
:101EC000080002402DE9F04104460D4616461F4623
:101ED0004FF0000800BF94F82000012802D1022032
:101EE000BDE8F081012084F8200000BF94F82100B3
:101EF00001282CD1022084F821000020A063206852
:101F0000006820F00100216808603B4632462946FF
:101F10002046FFF72FF8E06A30B12068006840F0F3
:101F20000E00216808600BE02068006820F00400C3
:101F3000216808602068006840F00A002168086095
:101F40002068006840F001002168086006E000BFDA
:101F5000002084F8200000BF4FF002084046BFE791
:101F600070B5044600F09EFA06462546681C10B17E
:101F700004480078054400BF00F094FA801BA84292
:101F8000FAD370BDB00100202DE9F04104460E46A1
:101F90000127002500BF2648007E012802D102202B
:101FA000BDE8F08101202249087600BF20680228A0
:101FB00013D14CF25030FFF799FA90BB0120FFF794
:101FC0001BFA4CF25030FFF791FA074619480069A6
:101FD00020F004001749086123E04CF25030FFF76D
:101FE00085FAF0B94FF0FF303060A56812E028465E
:101FF000FFF716FA4CF25030FFF778FA07460D4813
:10200000006920F002000B4908610FB1356007E05C
:1020100005F58065D4E9021001EB8020A842E6D8DE
:1020200000BF00BF00200249087600BF3846B7E76E
:10203000780F0020002002400348006940F0800033
:102040000149086100207047002002402DE9FE4F41
:1020500005468B461746984601260024002002902C
:1020600000BF2448007E012802D10220BDE8FE8F77
:1020700001202049087600BF4CF25030FFF736FAB5
:10208000064686BB012D02D10120029006E0022DFA
:1020900002D10220029001E00420029000241EE000
:1020A0002201B946C24648465146FEF7C1F880B201
:1020B0000190022000FB04B000900199FFF7C4F9E1
:1020C0004CF25030FFF712FA06460B48006920F038
:1020D00001000949086106B104E0601CC4B202981D
:1020E0008442DDDB00BF00BF00200249087600BF4C
:1020F0003046BBE7780F002000200240002008494E
:10210000096901F0800151B10649054A516006494B
:1021100051601146096901F0800101B10120704749
:102120000020024023016745AB89EFCD00B5024690
:10213000B2F5805F01D103F0BDFD00BD10B50446CE
:1021400004480068204020B1024804602046FFF7A0
:10215000EDFF10BD140401402DE9F84703460022AD
:1021600094466EE14FF0010808FA02F4D1F80080BD
:1021700008EA0400A0427DD1DFF8DCA2D1F8048097
:10218000A8EB0A09D0453AD014DCB8F1030F50D0BF
:1021900009DCB8F1000F31D0B8F1010F1CD0B8F153
:1021A000020F49D120E0B8F1110F18D0B8F1120F89
:1021B00042D11EE0B9F5881F25D006DCB9F5803F75
:1021C00020D0B9F5801F37D11AE0B9F5001F18D01B
:1021D000B9F5041F30D117E0D1F80CC02DE0D1F8CB
:1021E0000C8008F1040C28E0D1F80C8008F1080CF0
:1021F00023E0D1F80C8008F10C0C1EE000BF00BFFA
:1022000000BF00BF00BF00BFD1F80880B8F1000FC9
:1022100002D14FF0040C0BE0D1F80880B8F1010FA7
:1022200003D14FF0080C1C6102E04FF0080C5C6118
:1022300003E04FF0000C00E000BF00BFFF2801D812
:10224000984601E003F104084646FF2802D84FEA09
:10225000820803E0A2F108084FEA88084746D6F84A
:1022600000804FF00F0909FA07F928EA09080CFA6B
:1022700007F900E088E048EA0908C6F80080D1F8CC
:10228000048008F08058B8F1805F7DD100BFDFF88E
:10229000CC81D8F8188048F00108DFF8C091C9F85F
:1022A0001880C846D8F8188008F00108CDF80080DA
:1022B00000BF00BF4FEAB9384FEA920958F82950D9
:1022C0004FEA82784FEA18794FF00F0808FA09F8B8
:1022D00025EA0805DFF88881434502D14FF0000860
:1022E00016E0DFF88081434502D14FF001080FE08E
:1022F000DFF87481434502D14FF0020808E0DFF8AF
:102300006C81434502D14FF0030801E04FF004080F
:102310004FEA82794FEA197908FA09F848EA05057F
:10232000DFF84C814FEA920948F82950D1F804802F
:1023300008F48038B8F5803F0AD1DFF83881D8F842
:10234000008048EA0008DFF82C91C9F8008009E015
:10235000DFF82081D8F8008028EA0008DFF814911F
:10236000C9F80080D1F8048008F40038B8F5003FBF
:1023700010D1DFF8008108F10408D8F8008048EA9D
:102380000008DFF8F09000E05AE009F10409C9F80C
:1023900000800DE0DFF8DC8008F10408D8F8008048
:1023A00028EA0008DFF8CC9009F10409C9F8008098
:1023B000D1F8048008F48018B8F5801F0ED1DFF83A
:1023C000B48008F10808D8F8008048EA0008DFF86F
:1023D000A49009F10809C9F800800DE0DFF89480A5
:1023E00008F10808D8F8008028EA0008DFF884908F
:1023F00009F10809C9F80080D1F8048008F4001830
:10240000B8F5001F0ED1DFF86C8008F10C08D8F881
:10241000008048EA0008DFF85C9009F10C09C9F86F
:1024200000800DE0DFF84C8008F10C08D8F800803F
:1024300028EA0008DFF83C9009F10C09C9F800808F
:10244000521CD1F8008028FA02F8B8F1000F7FF48E
:1024500089AEBDE8F88700000000111000100240AE
:1024600000080140000C0140001001400014014030
:102470000800014000040140024693680B400BB184
:10248000012000E000207047C2680A400AB14161A3
:1024900000E0016170470AB1016101E00B040361D2
:1024A000704700000148006870470000A801002044
:1024B00003480068034909780844014908607047E7
:1024C000A8010020B001002010B50848006840F0C5
:1024D000100006490860032000F0CCF8002000F04E
:1024E00007F800F049F8002010BD0000002002406D
:1024F00070B588B004460025002600222146192028
:1025000000F07AF8192000F067F800BF16488069DB
:1025100040F40060144988610846806900F4006056
:10252000019000BF00BF02A903A800F015FA00F057
:102530004BFA05460D48B5FBF0F0461E0C480D4918
:10254000086040F2E7310B48C1604660002101613C
:10255000816000F0F1FC20B9064800F027FD08B0CA
:1025600070BD0120FBE700000010024040420F0058
:10257000002C01402C0C002008B500BF14488069D5
:1025800040F00100124988610846806900F00100AE
:10259000009000BF00BF00BF0846C06940F08050F7
:1025A000C8610846C06900F08050009000BF00BFBD
:1025B00000220F21901E00F01FF800BF0549486857
:1025C00020F0E06040F00070486000BF08BD0000EF
:1025D000001002400000014001460846002809DBC7
:1025E00000F01F0301229A4043099B0003F1E023FE
:1025F000C3F8002100BF70472DE9F05F80460D460B
:102600001646002702F010F9074639462A46334697
:1026100001F00700C0F1070ABAF1040F02D94FF028
:10262000040A01E0C0F1070AD14600F1040ABAF138
:10263000070F02D24FF0000A01E0A0F1030AD446CE
:102640004FF0010A0AFA09FAAAF1010A0AEA020A93
:102650000AFA0CFA4FF0010B0BFA0CFBABF1010B71
:102660000BEA030B4AEA0B042146404602F0E4F869
:10267000BDE8F09F00BF00F00702064B19684FF657
:10268000FF031940044B0B4343EA0221014B19603D
:1026900000BF70470CED00E00000FA05F8B50446F5
:1026A00000260025207800F0010000286BD00027CC
:1026B0004348C06900F0805070B900BF4048C0690D
:1026C00040F080503E49C8610846C06900F0805023
:1026D000009000BF00BF01273A48006800F48070F6
:1026E000B0B93848006840F4807036490860FFF798
:1026F000D9FE064606E0FFF7D5FE801B642801D907
:102700000320F8BD2F48006800F480700028F2D044
:102710002B48006A00F440752DB3A08800F4407087
:10272000A84220D02648006A20F44075012026499E
:102730000860002008602248056205F0010090B1A1
:10274000FFF7B0FE064608E0FFF7ACFE801B41F243
:102750008831884201D90320D3E71948006A00F084
:1027600002000028F0D01648006A20F4407061682A
:10277000084313490862012F04D10846C06920F0BC
:102780008050C86100BF207800F00200022807D105
:102790000B48406820F44040A1680843084948605D
:1027A000207800F01000102807D10548406820F478
:1027B0008000E1680843024948600020A1E700006A
:1027C00000100240007000404004424270B50446D0
:1027D0000D460CB9012070BD5A48006800F0070092
:1027E000A8420ED25748006820F0070028435549F8
:1027F00008600846006800F00700A84201D00120E8
:10280000E9E7207800F0020002281DD1207800F0CE
:102810000400042805D14C48406840F4E0604A496F
:102820004860207800F00800082805D14648406834
:1028300040F46050444948604348406820F0F0004C
:10284000A168084340494860207800F0010078B34F
:102850006068012806D13C48006800F4003090B957
:102860000120B8E76068022806D13748006800F008
:10287000007040B90120AEE73348006800F0020064
:1028800008B90120A7E73048406820F003006168DC
:1028900008432D494860FFF705FE064609E0FFF7AB
:1028A00001FE801B41F28831884202D9032092E761
:1028B00007E02548406800F00C006168B0EB810F2C
:1028C000EDD12048006800F00700A8420ED91D484D
:1028D000006820F0070028431A490860084600688D
:1028E00000F00700A84201D0012074E7207800F032
:1028F0000400042807D11448406820F4E060E1682F
:10290000084311494860207800F00800082808D1E1
:102910000D48406820F46050216940EAC1000A492E
:10292000486000F061F808494968C1F30311074A9B
:10293000515CC8400649086006480068FFF7D8FDAA
:10294000002048E7002002400010024014AE0008BA
:10295000B4010020AC0100200F2202600D4A526831
:1029600002F0030242600B4A526802F0F0028260F9
:10297000084A526802F4E062C260064A526802F4F1
:102980006052D2080261044A126802F007020A602B
:10299000704700000010024000200240014800681B
:1029A00070470000B401002000B5FFF7F7FF0449AD
:1029B0004968C1F30221034A515CC84000BD0000D0
:1029C0000010024024AE000800B5FFF7E7FF0449FD
:1029D0004968C1F3C221034A515CC84000BD0000F0
:1029E0000010024024AE0008F0B585B00FF26C0C68
:1029F0009CE8E01001A8A0E8E0101CA52D68009557
:102A000000210022002300240020194D696801F0F4
:102A10000C05F5B1042D02D0082D19D101E015489F
:102A200019E001ADC1F38346AC5D01F4803555B1C9
:102A30000F4D6D68C5F340451DF805200D4D6543EC
:102A4000B5FBF2F302E00C4D04FB05F3184602E07F
:102A500000BF084800BF00BF05B0F0BD0203040579
:102A6000060708090A0B0C0D0E0F101001020000DA
:102A70000010024000127A0000093D00F8B504463B
:102A80000CB90120F8BD207800F00100002878D0B2
:102A9000F848406800F00C0004280CD0F548406865
:102AA00000F00C00082811D1F248406800F4803092
:102AB000B0F5803F0AD1EF48006800F400300028EC
:102AC0005FD0606800285CD10120DBE700BF606850
:102AD000B0F5803F06D1E748006840F48030E54912
:102AE000086028E0606858B9E248006820F4803047
:102AF000E04908600846006820F4802008601AE079
:102B00006068B0F5A02F0BD1DA48006840F480204F
:102B1000D84908600846006840F4803008600AE040
:102B2000D448006820F48030D24908600846006824
:102B300020F48020086000BF606888B1FFF7B2FC15
:102B4000054606E0FFF7AEFC401B642801D90320D0
:102B500098E7C848006800F400300028F2D010E080
:102B6000FFF7A0FC054606E0FFF79CFC401B64282D
:102B700001D9032086E7BF48006800F40030002830
:102B8000F2D1207800F00200022857D1B9484068FD
:102B900000F00C0050B1B748406800F00C00082865
:102BA00018D1B448406800F4803098B9B148006842
:102BB00000F0020020B12069012801D0012061E766
:102BC000AC48006820F0F800616940EAC100A949FA
:102BD000086033E02069E8B10120A7490860FFF7E9
:102BE00061FC054606E0FFF75DFC401B022801D9A9
:102BF000032047E79F48006800F002000028F2D059
:102C00009C48006820F0F800616940EAC1009949D9
:102C1000086013E0002098490860FFF743FC054670
:102C200006E0FFF73FFC401B022801D9032029E7FB
:102C30009048006800F002000028F2D1207800F0EF
:102C4000080008282DD1A069B8B101208B4908607F
:102C5000FFF728FC054606E0FFF724FC401B02288E
:102C600001D903200EE78348406A00F002000028E3
:102C7000F2D0012000F04EFF13E000207F490860F1
:102C8000FFF710FC054606E0FFF70CFC401B02288E
:102C900001D90320F6E67748406A00F002000028D8
:102CA000F2D1207800F00400042873D10027714885
:102CB000C06900F0805070B900BF6E48C06940F034
:102CC00080506C49C8610846C06900F0805000908F
:102CD00000BF00BF01276A48006800F48070B0B9E7
:102CE0006748006840F4807065490860FFF7DAFBC8
:102CF000054606E0FFF7D6FB401B642801D90320F8
:102D0000C0E65F48006800F480700028F2D000BF81
:102D1000E068012806D15748006A40F00100554993
:102D2000086227E0E06858B95248006A20F00100C4
:102D3000504908620846006A20F00400086219E061
:102D4000E06805280BD14B48006A40F0040049496F
:102D500008620846006A40F0010008620AE045483F
:102D6000006A20F00100434908620846006A20F02A
:102D70000400086200BFE068A0B1FFF793FB0546BE
:102D800009E0FFF78FFB401B41F28831884202D9EE
:102D9000032077E622E03748006A00F002000028AE
:102DA000EFD012E0FFF77EFB054608E0FFF77AFB65
:102DB000401B41F28831884201D9032062E62D4848
:102DC000006A00F002000028F0D1012F05D1294847
:102DD000C06920F080502749C86100BFE069C8B3CE
:102DE0002448406800F00C00082860D0E069022800
:102DF00048D1002020490866FFF754FB054606E04D
:102E0000FFF750FB401B022801D903203AE619487E
:102E1000006800F000700028F2D1206AB0F5803F11
:102E200007D11448406820F40030A16808431149D4
:102E30004860D4E9080108430E49496821F4741137
:102E400008430C49486001200B490866FFF72AFB3C
:102E5000054607E03DE0FFF725FB401B022801D9AE
:102E600003200FE60348006800F000700028F2D04D
:102E70002FE0000000100240000042428004424265
:102E800000700040002014490866FFF70BFB054660
:102E900006E0FFF707FB401B022801D90320F1E5FC
:102EA0000E48006800F000700028F2D111E0E069DF
:102EB000012800D1E6E50948466806F48031206A19
:102EC000814204D106F47011606A814201D0012070
:102ED000D8E50020D6E50000000042420010024084
:102EE0007047704710B5024600BF92F83C000128B9
:102EF00001D1022010BD012082F83C0000BF022059
:102F000082F83D00106843681068846823F07003FD
:102F10000868034324F08004486804431068436051
:102F200010688460012082F83D0000BF002082F814
:102F30003C0000BF00BFDDE710B504460CB901201E
:102F400010BD94F83D0028B9002084F83C002046CC
:102F500000F00CF8022084F83D00211D206801F0EB
:102F6000A9F9012084F83D000020E9E738B50446BE
:102F70002068B0F1804F15D100BF0B48C06940F008
:102F800001000949C8610846C06900F001000090CD
:102F900000BF00BF002205211C20FFF72DFB1C20D5
:102FA000FFF71AFB38BD0000001002400146086818
:102FB000C06840F001000B68D8600868806800F0C5
:102FC0000702062A05D00868006840F001000B6877
:102FD0001860002070472DE9F04104460D4600BFFF
:102FE00094F83C00012802D10220BDE8F0810120C4
:102FF00084F83C0000BF022084F83D002068866809
:1030000026F0770626F47F462068866028685028D8
:1030100033D00CDC202850D004DC00284BD0102802
:1030200051D149E0302849D040284CD139E06028BE
:103030002DD0702807D0B0F5805F03D0B0F5005FC9
:1030400041D10DE040E0D5E902136A68206801F043
:103050006BF92068866846F077062068866033E062
:10306000D5E902136A68206801F05EF9206880687B
:1030700040F480402168886026E0EA68696820683A
:1030800001F066F95021206801F059F91CE0EA6866
:103090006968206801F06FF96021206801F04FF93C
:1030A00012E0EA686968206801F052F9402120685E
:1030B00001F045F908E000BF00BF00BF29682068A3
:1030C00001F03DF900E000BF00BF012084F83D00A1
:1030D00000BF002084F83C0000BF00BF85E77047B8
:1030E00010B5044620680069C0F34000D8B12068DC
:1030F000C068C0F34000B0B16FF002002168086101
:10310000012020772068806900F0030018B1204674
:10311000FFF7E5FF05E0204600F0ADF8204600F09F
:10312000ABF80020207720680069C0F38000D8B198
:103130002068C068C0F38000B0B16FF0040021685F
:103140000861022020772068806900F4407018B17F
:103150002046FFF7C4FF05E0204600F08CF820462B
:1031600000F08AF80020207720680069C0F3C000D2
:10317000D8B12068C068C0F3C000B0B16FF00800DB
:1031800021680861042020772068C06900F00300EE
:1031900018B12046FFF7A3FF05E0204600F06BF8CA
:1031A000204600F069F80020207720680069C0F30D
:1031B0000010D8B12068C068C0F30010B0B16FF043
:1031C000100021680861082020772068C06900F499
:1031D000407018B12046FFF782FF05E0204600F05E
:1031E0004AF8204600F048F800202077206800695F
:1031F00000F0010058B12068C06800F0010030B153
:103200006FF0010021680861204600F037F820685F
:103210000069C0F3C01058B12068C068C0F3C01086
:1032200030B16FF08000216808612046FFF758FE3A
:1032300020680069C0F3801058B12068C068C0F3EE
:10324000801030B16FF0400021680861204600F026
:103250002FF820680069C0F3401058B12068C0689A
:10326000C0F3401030B16FF02000216808612046A3
:10327000FFF737FE10BD70477047000010B50446D9
:1032800008492068884202D1FFF712F908E0206857
:10329000B0F1804F04D1052203490448FEF7CCFB6E
:1032A00010BD0000002C0140400600204C0600200C
:1032B000704770B50446002520684069C0F3C0150A
:1032C00094F8390021280ED16DB12068406920F0B2
:1032D000800021684861206B10B1206BFEF76CFC08
:1032E000204601F0D8F820684069C0F3801594F8B2
:1032F0003A0022280ED16DB12068406920F04000CC
:1033000021684861606B10B1606BFEF755FC204688
:1033100001F0A1F8002070BD704700002DE9F047D2
:103320000446206805682068C668206847694FF031
:103330000008C14605F00F08B8F1000F0AD105F0EA
:10334000200038B106F0200020B1204601F0E4F85A
:10335000BDE8F087B8F1000F6DD007F0010018B993
:1033600006F49070002866D005F0010030B106F434
:10337000807018B1E06B40F00100E06305F00400DC
:1033800030B107F0010018B1E06B40F00200E063DB
:1033900005F0020030B107F0010018B1E06B40F019
:1033A0000400E06305F0080030B107F0010018B137
:1033B000E06B40F00800E063E06B68B305F02000CC
:1033C00028B106F0200010B1204601F0A5F82068D1
:1033D0004069C0F38019E06B00F0080010B9B9F142
:1033E000000F22D0204601F036F82068406900F036
:1033F0004000B0B12068406920F040002168486179
:10340000606B50B11748616B4863606BFEF700FC5E
:1034100010B1606B416B88470CE02046FFF77CFFE2
:1034200008E02046FFF778FF04E02046FFF774FF2E
:103430000020E0638CE705F0800030B106F08000EA
:1034400018B1204601F08CF982E705F0400030B158
:1034500006F0400018B1204601F00DF878E700BFF3
:1034600076E700009F43000810B504460CB9012020
:1034700010BDA06900B100E000BF94F8390028B980
:10348000002084F83800204600F028F8242084F832
:1034900039002068C06820F400502168C8602046C8
:1034A00001F08EF82068006920F4904021680861DE
:1034B0002068406920F02A00216848612068C068BF
:1034C00040F400502168C8600020E063202084F8A8
:1034D000390084F83A000020CAE7000010B586B031
:1034E0000446002002900390049005902F49206824
:1034F000884259D100BF2E48806940F480402C4951
:1035000088610846806900F48040019000BF00BFD8
:1035100000BF0846806940F0040088610846806961
:1035200000F00400019000BF00BF48150290022087
:1035300003900320059002A91E48FEF70DFE4FF4EC
:103540008060029000200390049002A91948FEF7C1
:1035500003FE1948194908600020486000211748F7
:1035600081608021C16000210161416181614FF46E
:103570000051C161FEF772FC08B1FDF718FD00BFF4
:103580000E486063446200BF002205212520FFF73A
:1035900033F82520FFF720F809480068C06840F09C
:1035A000100007490968C86006B010BD0038014026
:1035B000001002400008014058000240E80B0020C3
:1035C000A80B002077B581B00446154694F83A0060
:1035D000202850D1029800B115B9012004B070BD67
:1035E00000BF94F83800012801D10220F6E701203D
:1035F00084F8380000BF0298A062A5850020E0632F
:10360000222084F83A001D48616B88621C48616B77
:10361000C8621C48616B08630020616B486302AE9E
:1036200032682368191D2B46606BFEF74BFC00BF08
:10363000002000902068006800902068406800909A
:1036400000BF00BF00BF002084F8380000BF206822
:10365000C06840F480702168C8602068406940F00C
:103660000100216848612068406940F040002168FD
:1036700048610020B2E70220B0E7000003440008E0
:1036800049440008B34300087047704710B503462B
:1036900093F83900202823D101B10AB9012010BDC7
:1036A00000BF93F83800012801D10220F7E701207C
:1036B00083F8380000BF19629A84DA840020D86346
:1036C000212083F8390000BF002083F8380000BFB4
:1036D0001868C06840F080001C68E0600020DEE7E9
:1036E0000220DCE7704700BFFEE710B5052000F0C0
:1036F00071FA00F0DBFA00F093F810BD30B5034624
:103700000C461546002207E0184600F008F824F899
:1037100012009B1C501C82B2AA42F5DB30BD014650
:10372000088870472DE9F04F85B080468A461746D5
:1037300000200490B8F1006F02D33748804502D3CF
:1037400005B0BDE8F08FFEF7D9FCA8F1006B4FEA99
:103750009B26CBF34809C9F50074A74200DC3C4620
:1037600054E04FF0006101EB86208A142B49FFF7EB
:10377000C5FF00250BE009EB0500284931F81000D2
:103780004FF6FF71884200D003E0681C85B2A54265
:10379000F1DB00BFA54222DA002000904FF000606C
:1037A00000EB862002900120039004A96846FEF7F2
:1037B000EBFB002508E03AF8150005EB0901174A74
:1037C00022F81100681C85B2A542F4DB4FF00061BD
:1037D00001EB86208A141149FDF7C0FE04E0224661
:1037E00051464046FDF7BAFEA74200D10FE0761CD5
:1037F0004FF000090AEB440AA044381B87B2B7F522
:10380000007F02DD4FF4007400E03C46A9E700BFF2
:10381000FEF712FC00BF93E7FFFF01084002002003
:1038200000B585B000BF1048806940F008000E491F
:1038300088610846806900F00800009000BF00BF62
:1038400088140190094802900220039001A90848B9
:10385000FEF782FC002205212820FEF7CDFE28205D
:10386000FEF7BAFE05B000BD0010024000001110C6
:10387000000C01400EB500200090019002902848F5
:10388000284908608115274881600021017301756E
:103890004FF46021C1610020224948600521214880
:1038A0000161FDF7C5FF08B1FDF781FB0420009021
:1038B000012001900620029069461A48FDF774FE27
:1038C00008B1FDF774FB03200090022001906946C7
:1038D0001448FDF769FE08B1FDF769FB052000906B
:1038E0000320019069460F48FDF75EFE08B1FDF721
:1038F0005EFB062000900420019069460948FDF710
:1039000053FE08B1FDF753FB0720009005200190FE
:1039100069460448FDF748FE08B1FDF748FB0EBDB7
:10392000002401404C06002008B500BF0E48406945
:1039300040F001000C4948610846406900F0010070
:10394000009000BF00BF002205210B20FEF754FEAF
:103950000B20FEF741FE002205210F20FEF74CFE52
:103960000F20FEF739FE08BD0010024000B589B0F7
:1039700000200790089007A803F066FB0D49086037
:103980001C220D496846FCF763FC0021684603F0E1
:1039900064FC0A49086002F05FFA02F0B7FA08B165
:1039A00000BFFEE702F06CFA08B100BFFEE709B005
:1039B00000BD000004000020E4A00008000000207A
:1039C00000B585B00020019002900390049000BFE4
:1039D0002348806940F020002149886108468069B9
:1039E00000F02000009000BF00BF00BF08468069C3
:1039F00040F0040088610846806900F004000090EF
:103A000000BF00BF00BF0846806940F00800886121
:103A10000846806900F00800009000BF00BF012246
:103A20004FF430710F48FEF736FDC0200190112091
:103A30000290002003900320049001A90948FEF79A
:103A40008BFB4FF400700190012002900020039046
:103A50000320049001A90348FEF77EFB05B000BDDA
:103A600000100240000C014000B587B00020039018
:103A7000049005900690019002904FF08040144908
:103A8000086041F61F4048600021114881606421B0
:103A9000C1600021016180218161FFF74DFA08B109
:103AA000FDF785FA4FF48050039003A90848FFF70B
:103AB00092FA08B1FDF77BFA00200190029001A96B
:103AC0000348FFF70FFA08B1FDF771FA07B000BD20
:103AD000680B002010B50B480B4908604FF4E1203B
:103AE0004860002108488160C16001610C2141618A
:103AF00000218161C161FFF7B7FC08B1FDF757FAFA
:103B000010BD000000380140A80B002000BFFEE7F8
:103B10007047000008B508490968C9084FF47A726F
:103B2000B1FBF2F14143009100BF00BF00994A1E72
:103B300000920029F9D108BDB40100202DE9F04719
:103B400007468846144699464FF0000A0025FDF7BF
:103B500023FD064600BF0025E2B24B4641463846EB
:103B600000F03EF805466DB166B15046411C01F0CB
:103B7000FF0A042802DD2846BDE8F0873046FEF73C
:103B8000EFF9E8E72846F7E72DE9F04707468846CA
:103B9000144699464FF0000A0025FDF7FDFC064645
:103BA00000BF0025E2B24B464146384600F051F8CE
:103BB00005466DB166B15046411C01F0FF0A04286C
:103BC00002DD2846BDE8F0873046FEF7C9F9E8E790
:103BD0002846F7E701490880704700003E000020B2
:103BE0002DE9F0410746884614461D4600F034F999
:103BF000002141EA4701C8B200F0AEF9064616B10D
:103C00003046BDE8F081404600F0A6F906460EB108
:103C10003046F6E700F020F9012101EB4701C8B278
:103C200000F09AF906460EB13046EAE70BE0012CA7
:103C300003D100F09DF8287002E000F0D3F828705E
:103C40006D1C601EC4B2002CF1D100F041F90020BF
:103C5000D7E72DE9F04706460F46904699460025DE
:103C600000F0FAF8002141EA4601C8B200F074F908
:103C7000054615B12846BDE8F087384600F06CF9D6
:103C800005460DB12846F6E7002409E019F80400BE
:103C900000F062F905460DB12846ECE7601CC4B29D
:103CA0004445F3DB00F014F90020E4E700B585B0EB
:103CB00000BF2948806940F008002749886108460C
:103CC000806900F00800009000BF00BF00BF0846F8
:103CD000806940F0080088610846806900F00800AB
:103CE000009000BF00BF40200190112002900320EF
:103CF000049001A91948FEF72FFA802001901120A5
:103D000002900320049001A91448FEF725FA00BF91
:103D1000002280211148FEF7BEFB00BF00BF012238
:103D200040210E48FEF7B7FB00BF0D4800F01AF81F
:103D300000BF012240210948FEF7ADFB00BF00BFD4
:103D4000012280210548FEF7A6FB00BF044800F0D1
:103D500009F805B000BD000000100240000C014051
:103D6000A086010000BF411E081EFCD17047000064
:103D700070B500BF012280211948FEF78CFB00BFFF
:103D800000BF002240211648FEF785FB00BF00243B
:103D900000251EE000BF012240211148FEF77BFBF9
:103DA00000BF0A20FFF7DEFF6006040E80210C48EA
:103DB000FEF762FB08B144F0010400BF002240217D
:103DC0000748FEF768FB00BF0A20FFF7CBFF681C1F
:103DD000C5B2082DDEDB00F0FDF8204670BD000006
:103DE000000C014070B500BF012280211948FEF788
:103DF00052FB00BF00BF002240211648FEF74BFBDC
:103E000000BF002400251EE000BF01224021114810
:103E1000FEF741FB00BF0A20FFF7A4FF6006040E77
:103E200080210C48FEF728FB08B144F0010400BFD4
:103E3000002240210748FEF72EFB00BF0A20FFF7B3
:103E400091FF681CC5B2082DDEDB00F063F8204648
:103E500070BD0000000C014010B500BF01228021A0
:103E60001A48FEF718FB00BF0A20FFF77BFF00BFD0
:103E7000012240211548FEF70EFB00BF0A20FFF784
:103E800071FF80211148FEF7F7FA08B9012010BD33
:103E900000BF002280210D48FEF7FDFA00BF0A2076
:103EA000FFF760FF00BF002240210848FEF7F3FA49
:103EB00000BF0A20FFF756FF80210448FEF7DCFA16
:103EC00008B10220E3E70020E1E70000000C014018
:103ED00010B500BF002280210D48FEF7DCFA00BFBC
:103EE0000A20FFF73FFF00BF012240210848FEF7EC
:103EF000D2FA00BF0A20FFF735FF00BF0122802160
:103F00000348FEF7C8FA00BF0A20FFF72BFF10BDD9
:103F1000000C014010B500BF002280210D48FEF7C3
:103F2000BAFA00BF0A20FFF71DFF00BF012240219F
:103F30000848FEF7B0FA00BF0A20FFF713FF00BFE2
:103F4000002240210348FEF7A6FA00BF0A20FFF72F
:103F500009FF10BD000C014070B5044600BF0022EF
:103F600040211B48FEF797FA00BF00252BE004F024
:103F7000800030B100BF012280211548FEF78BFA86
:103F800006E000BF002280211148FEF784FA00BF3E
:103F90006006040E0A20FFF7E5FE00BF0122402163
:103FA0000B48FEF778FA00BF0A20FFF7DBFE00BFE0
:103FB000002240210648FEF76EFA00BF0A20FFF7F4
:103FC000D1FE681CC5B2082DD1DB00F025F870BD0C
:103FD000000C014010B500BF012280210D48FEF702
:103FE0005AFA00BF0A20FFF7BDFE00BF01224021A0
:103FF0000848FEF750FA00BF0A20FFF7B3FE00BFE3
:10400000002240210348FEF746FA00BF0A20FFF7CE
:10401000A9FE10BD000C014010B5002400BF012214
:1040200080211448FEF737FA00BF0A20FFF79AFEF6
:1040300000BF012240210F48FEF72DFA00BF0A20E1
:10404000FFF790FE07E0601CC4B2FA2C03DDFFF717
:104050003FFF022010BD80210648FEF70DFA002820
:10406000F1D100BF002240210248FEF714FA00BF40
:104070000020EFE7000C014000BF4FF0FF3002F0DE
:1040800001FFFAE792B001F085FC354903C9CDE99B
:10409000100103F011F910903149083103C9CDE93D
:1040A0000E0110AA01210EA803F034F92D49086071
:1040B0000A212C48006803F053F903F0FDF8044688
:1040C00003F018F900BF4FF0FF3210210AA803F0E7
:1040D00093F825488078002840D007A808A90DABA0
:1040E00003AACDE9001009A90BA801F02BF99DF84E
:1040F0001C0010B900201C498870BDF8200000F495
:10410000807050B31848007900F0040028B303A968
:10411000684601F029FF0098FCF79BFB134A03C295
:104120000198FCF796FB124A03C20298FCF791FB38
:10413000104A03C20D48D0E900100F4AC2E900102E
:104140000C4903C90D4A03C20D489DE80E003C30DE
:104150000EC06846FCF702FE00BF00BFB3E70000D8
:1041600068AD0008740000207C0C00204000002096
:104170004800002050000020580000206800002067
:104180004001002010B500BF502080F31188BFF31C
:104190004F8FBFF36F8F00BF05F052FC18B14FF087
:1041A00080500449086000BF002080F3118800BFE0
:1041B00010BD000004ED00E000B593B0282109A86F
:1041C000FCF76DF8142104A8FCF769F800200090B2
:1041D0000190029003900120099000040A900020B1
:1041E0000B9001200D9002201090C10311914FF40B
:1041F000E011129109A8FEF741FC08B1FCF7D7FEC7
:104200000F20049002200590002006904FF480605B
:10421000079000200890022104A8FEF7D7FA08B101
:10422000FCF7C5FE02200090800302906846FEF76E
:1042300035FA08B1FCF7BBFE13B000BD11480068A9
:1042400040F001000F490860084640680E490840E8
:104250000C494860084600680C4908400949086054
:104260000846006820F4802008600846406820F472
:10427000FE0048604FF41F008860C80304490860CE
:1042800070470000001002400000FFF8FFFFF6FE3C
:1042900008ED00E010B50248FEF722FF10BD000057
:1042A0002C0C002010B50248FEF71AFF10BD0000CC
:1042B000680B002010B50268184B984208D0B0F186
:1042C000804F05D0164B984202D0164B984203D12E
:1042D00022F070024B681A43104B984208D0B0F19C
:1042E000804F05D00E4B984202D00E4B984203D11E
:1042F00022F44072CB681A4322F080034C6943EAEF
:10430000040202608B68C3620B688362034B9842AD
:1043100001D10B6903630123436110BD002C0140EF
:10432000000400400008004030B50C46816821F4CC
:104330007F4142EA032525432943816030BD0A4677
:10434000816821F0700142F00703194381607047D2
:1043500030B50B461446026A056A25F00105056270
:10436000816921F0F00141EA041122F00A021A43A6
:104370008161026230BD30B50B461446056A25F0F6
:10438000100505628169026A21F4704141EA043135
:1043900022F0A00242EA03128161026230BD70B5D0
:1043A00005466C6A0020E085E0842046FEF7B4FFF5
:1043B00070BD70B506460025746A20684069C0F378
:1043C000C01594F83900212805D125B10020E084DA
:1043D000204600F060F820684069C0F3801594F82A
:1043E0003A00222805D125B10020E085204600F0C2
:1043F00032F8E06B40F01000E0632046FEF78CFFDF
:1044000070BD70B505466C6A2868006800F0200031
:10441000B0B90020E0852068C06820F48070216871
:10442000C8602068406920F0010021684861206868
:10443000406920F0400021684861202084F83A005B
:104440002046FFF721F970BD70B50446656A28461D
:10445000FFF71BF970BD0168C96821F4907102680B
:10446000D1600168496921F0010102685161202190
:1044700080F83A10704710B504462068C06820F0F4
:1044800040002168C860202084F839002046FFF7EA
:1044900029F9002010BD0168C96821F0C001026837
:1044A000D160202180F839107047000010B5044613
:1044B0001548844227D100680068C0F3001010B38B
:1044C0001148FEF7F6FE1148407820F00100401C2C
:1044D0000E4948700846407820F0020048700A48AB
:1044E000406B00684068C0F18000887008468278A0
:1044F0000749001DFBF7ACFE02210648006802F0E8
:104500004BFE01F005FC10BDA80B0020BC000020F4
:10451000F80E0020B400002070B5044694F83A006C
:1045200022284AD1A068B0F5805F13D1A56A20691E
:1045300040B920684068C0F308002880A06A801C49
:10454000A06219E020684068C0B22880A06A401CC0
:10455000A06211E0206938B920684068C1B2A26A3F
:10456000501CA062117007E02068406800F07F01D5
:10457000A26A501CA0621170E08D401E80B2E085DE
:10458000C8B92068C06820F020002168C860206891
:10459000C06820F480702168C8602068406920F0FD
:1045A000010021684861202084F83A002046FFF786
:1045B0006BF8002070BD0020FCE70220FAE7000045
:1045C00070B504462168096921F44051E26811433D
:1045D000226811612269A1681143626941EA0205FA
:1045E0002168C96841F20C62914329432268D16075
:1045F0002168496921F44071A2691143226851611F
:10460000564A2168914254D1FEF7DEF900EBC00111
:1046100001EB001162689200B1FBF2F100EBC00205
:1046200002EB001263689B00B2FBF3F26423B2FB5F
:10463000F3F202EBC20303EB0212A1EB820132227E
:1046400002EB01116422B1FBF2F101F0F00100EB89
:10465000C00202EB001263689B00B2FBF3F264231A
:10466000B2FBF3F201EB021200EBC00101EB00110F
:1046700063689B00B1FBF3F100EBC00303EB001395
:104680006668B600B3FBF6F36426B3FBF6F303EB00
:10469000C30606EB0313A1EB8301322303EB0111E5
:1046A0006423B1FBF3F101F00F0111442268916022
:1046B00053E0FEF779F900EBC00101EB00116268ED
:1046C0009200B1FBF2F100EBC00202EB0012636852
:1046D0009B00B2FBF3F26423B2FBF3F202EBC203E2
:1046E00003EB0212A1EB8201322202EB01116422E0
:1046F000B1FBF2F101F0F00100EBC00202EB00129D
:1047000063689B00B2FBF3F26423B2FBF3F201EBAC
:10471000021200EBC00101EB001163689B00B1FBCA
:10472000F3F100EBC00303EB00136668B600B3FBC4
:10473000F6F36426B3FBF6F303EBC30606EB0313B1
:10474000A1EB8301322303EB01116423B1FBF3F1ED
:1047500001F00F0111442268916070BD00380140E2
:10476000014691F8390021282CD18868B0F5805F86
:104770000FD10A6A1088C0F308000B6858600869F6
:1047800018B9086A801C086209E0086A401C0862BF
:1047900005E00B6A581C086218780B685860C88CD2
:1047A000401E80B2C88458B90868C06820F08000F4
:1047B0000B68D8600868C06840F040000B68D8609B
:1047C000002070470220FCE710B50348FFF76EFE9B
:1047D0000148FEF7A3FD10BDA80B002000BFFEE7B7
:1047E0000FB4054B10B503A9044A029800F054F821
:1047F00010BC5DF814FB0000915A0008380200203C
:104800004100080218BF04200A0E18BF40F0010042
:104810004FF07F4232EA010108BF40F00200012858
:1048200008BF05207047000002480068C0F302205E
:10483000704700000CED00E010B5002804DB0A070B
:10484000130E054A135406E00A07140E034A00F03B
:104850000F031B1FD45410BD00E400E018ED00E06E
:10486000FBF735BD6FF05E010807FCF78DB902E07C
:1048700008C8121F08C1002AFAD1704770470020EB
:1048800001E001C1121F002AFBD1704701490860F5
:10489000704700003C0200202DE9FF4F8DB00F460D
:1048A0000546002606E025280BD0DDE90F129047CB
:1048B0006D1C761C28780028F5D111B03046BDE873
:1048C000F08F0024A246A1460122EC4900E00443F7
:1048D00015F8013F203B02FA03F00842F7D128788F
:1048E0002A2810D06FF02F022878A0F13001092972
:1048F00014D80AEB8A0102EB410144F0020400EBF8
:10490000010A6D1CF0E701CF5FEA000A03D544F409
:104910000054CAF1000A44F002046D1C28782E28C5
:1049200017D115F8010F44F004042A280ED06FF0B7
:104930002F022878A0F1300109290AD809EB890152
:1049400002EB410100EB01096D1CF2E757F8049BF3
:104950006D1C28786C280FD006DC4C2817D06828EE
:104960000DD06A2814D104E0742810D07A280FD111
:104970000DE044F400140AE044F4801401E044F42F
:1049800040146978814202D104F580146D1C6D1CBD
:104990002A786E2A1FD00CDC632A31D004DC002A6E
:1049A0008BD0582A11D1A3E0642A68D0692A0CD18F
:1049B00065E0732A2ED004DC6F2A73D0702A04D1EC
:1049C0009BE0752A6FD0782A6ED01046DDE90F1271
:1049D0009047761C50E1C4F30250022806D0032809
:1049E00009D0042801CF09D0066045E101CFF117B5
:1049F000C0E9006140E101CF06803DE106703BE186
:104A000017F8040B8DF8000000208DF80100EB462C
:104A1000012003E057F804BB4FF0FF3061074FF06F
:104A2000000102D40DE008F10101884649450FDA82
:104A30008045F8DB1BF808100029F4D108E008F1E4
:104A4000010188468142FADB1BF808100029F6D1E3
:104A5000DDE90F23AAEB08008146214600F036F974
:104A6000304400EB080604E0DDE90F121BF8010BEF
:104A70009047B8F10108F7D221464846F7E00A21ED
:104A8000C4F302534FF0000B0891022B04D001CF66
:104A9000C117032B09D00AE0FF1D27F00707F7E82D
:104AA000020108E032E01FE020E000B2C117042B51
:104AB00001D140B2C117031E71F1000307DA4FF0B4
:104AC000000CD0EB0C006CEB01012D2302E0230560
:104AD00004D52B238DF82430012303E0E30701D014
:104AE0002023F7E7984658E00A2110E010210EE055
:104AF00010204FF0000B08900CE010214FF0000B3D
:104B000044F004044FF00809089103E008214FF035
:104B1000000B0891C4F30253022B04D001CF0021F3
:104B2000032B06D006E0FF1D27F00707F7E8020178
:104B300003E080B2042B00D1C0B24FF0000823077D
:104B40002BD5702A07D0DDF820C08CF0100C5CEA61
:104B50000B0C05D00EE040238DF82430012308E033
:104B600050EA010306D030238DF824308DF825203B
:104B700002239846DDF820C08CF0080C5CEA0B0C90
:104B80000BD150EA010301D1630706D530238DF81C
:104B900024304FF00108A9F10109582A04D038A2A5
:104BA0000B9208AA0A920BE03AA2F9E75B46089A30
:104BB000FBF7C2FE0B9B9B5C0A9A521E0A92137073
:104BC00050EA0102F2D10A98ADEB000000F1200B8F
:104BD000600702D524F4803401E04FF00109D94583
:104BE00002DDA9EB0B0000E0002000EB0B014144CB
:104BF0000890AAEB010AE00306D4DDE90F23214661
:104C0000504600F063F806444FF0000908E009A997
:104C100011F80900DDE90F12904709F10109761C2E
:104C2000C145F4DBE0030CD5DDE90F2321465046F6
:104C300000F04CF8064404E0DDE90F123020904704
:104C4000761C0899481E08900029F5DC08E00A98AF
:104C50000A990078491C0A91DDE90F129047761CE9
:104C6000BBF10001ABF1010BF1DC21465046DDE95F
:104C70000F2300F019F806446D1C1BE609280100FB
:104C800030313233343536373839616263646566C2
:104C90000000000030313233343536373839414284
:104CA00043444546000000002DE9F041044600253C
:104CB0001E461746880404D405E039462020B04734
:104CC0006D1C641EF9D52846BDE8F0812DE9F04140
:104CD000044600251E469046C80301D5302700E053
:104CE0002027880404D505E041463846B0476D1CAE
:104CF000641EF9D52846BDE8F08100002DE9F04793
:104D00004FF0684202EB40030C460546B3F1654F95
:104D10003CBF02EB4102B2F1654F7CD2C0F3C753F6
:104D2000C1F3C7529A1A1B2A06DD10F0004F14BFB8
:104D300076487748BDE8F08712F11A0F17DA11F0BC
:104D4000004F06D010F0004F0CBF72487248BDE80B
:104D5000F08721462846FBF744FB0446FFF750FD49
:104D6000042808BFFFF77EFD2046BDE8F08742001B
:104D7000B2EB410F25D910F0004F19BF674F684EB5
:104D8000684F694E224685F0004415460A4680F079
:104D9000004110460A1A5200B2F1807F40D24840CA
:104DA0006249DFF88CA110F0004F18D04FF03F4857
:104DB0003846FBF7DEFA074651463046FBF7D9FA8C
:104DC00017E011F0004F04BF00263746E2D010F084
:104DD000004F19BF574F584E584F594EDAE74FF012
:104DE0007C583846FBF773FA074651463046FBF7C6
:104DF0006EFA064641462846FBF7C1FA2146FBF704
:104E000066FA824621464046FBF7B9FA2946FBF787
:104E1000B3FA514600E037E0FBF7E3FA044604E05A
:104E200021462846FBF7DDFA04460146FBF7A7FAC0
:104E300080464449FBF7A3FA4349FBF748FA414649
:104E4000FBF79DFA4149FBF742FA4146FBF797FA17
:104E50003F49FBF73CFA4146FBF791FA3D49FBF726
:104E600036FA054641462046FBF789FA2946FBF704
:104E700086FA3146FBF72BFA2146FBF728FA39462A
:104E8000BDE8F047FBF723BA4FF07F42B2EB400F8B
:104E900028BFB2EB410F03D2BDE8F047FFF7E0BCFB
:104EA00040EA01035B0008BF44F0FF410AD0B2EBC7
:104EB000400F08BFB2EB410F06D125F0804024F02F
:104EC000804105460C4629E7B2EB400F12BF5FEA6E
:104ED000410245F0FF4004F000413FF41FAF4A009B
:104EE00092EA40033FF51AAF002AACBF4FF09F464D
:104EF0004FF03E563146FBF742FA05463146204612
:104F0000FBF73DFA04462846214607E7DB0FC9BFF9
:104F1000DB0FC93FDB0F4940DB0F49C00000C9BFB1
:104F200022AAFDB90000C93F22AAFD390060ED3E6A
:104F3000C30ACE37000049C022AA7DBA000049400A
:104F400022AA7D3A2DAD65BD8FB8D53D0FB511BEF6
:104F500061C84C3EA8AAAABE10B503461C46A0785C
:104F600018B9042003F034FB04E0A078012801D133
:104F700003F02EFB10BD000010B504460149086D7A
:104F8000804710BD4001002010B503461C46A078A4
:104F900010B1032003F01CFB10BD30B502464FF6E4
:104FA000FF7018E012F8015B80EA052008230FE08B
:104FB00000F400443CB14FF6FF7404EA400041F2B3
:104FC0002104604003E04FF6FF7404EA40005B1EDA
:104FD000002BEDD1491E0029E4D130BD2DE9F0416F
:104FE0000446E07800F0C006E07800F03F05607805
:104FF00000F0010098B1EF102846E91705EB517158
:10500000C910A5EBC101491C01F0FF080B4800685D
:1050100020B10A48414602683846904700BF607890
:1050200000F0080030B10548406818B1B011034ADB
:10503000516888470020BDE8F08100006C0C00201A
:1050400038B5044664B120208DF8000028208DF882
:10505000010030208DF8020038208DF8030004E0B4
:10506000A32204216846FBF713F96A46042140F69F
:105070009E2001F0C7FE01F03FFB38BD3EB504465F
:1050800002208DF80000CA208DF80100E3208DF881
:10509000020009208DF803006A460421682001F00F
:1050A000B1FEA3208DF8000004F0400048B1C020FC
:1050B0008DF80100C8208DF80200C2208DF8030091
:1050C00006E0A3208DF801008DF802008DF80300A2
:1050D00004F4C07048B1C4208DF80400CC208DF8D1
:1050E0000500C6208DF8060006E0A3208DF8040018
:1050F0008DF805008DF80600A3208DF807008DF8C7
:1051000008008DF809006A460A2140F6A72001F040
:1051100079FE04F0030018B120208DF8000002E0B1
:10512000D8208DF800006A46012140F6B62001F033
:1051300069FE04F0200018B1012000F0ADF802E093
:10514000002000F0A9F804F4C07008B304F48070E3
:1051500060B1B2208DF800008B208DF80100B620E0
:105160008DF802009B208DF803000BE0B0208DF835
:10517000000080208DF80100B4208DF802009020FE
:105180008DF803006A46042140F6A22001F03AFEA1
:1051900004F0010020B3F8208DF800006A460121D8
:1051A0004FF40B6001F02EFEFA21072000F0FCFA0C
:1051B000072000F0C3FA012000F0E3FA642000F0B9
:1051C000C3FB4FF4FA7000F0D2FBC821304800F066
:1051D00073FA282000F08CFA0A2000F09CFA08E00C
:1051E000D8208DF800006A4601214FF40B6001F0D1
:1051F00009FE04F0020018B1D9208DF8000002E089
:10520000D8208DF800006A46012140F23D7001F07F
:10521000F9FD04F0040018B1012000F069F802E083
:10522000002000F065F804F0100018B10120FFF72D
:1052300007FF02E00020FFF703FF44F008001549D4
:10524000488101F059FA00201249887304F04000A7
:1052500018B10846807B801D887304F4C07020B1AB
:105260000C48807B801D0B49887304F0140020B12A
:105270000848807B10300749887304F0030020B190
:105280000448807B001D0349887300203EBD000058
:1052900009E3CA026C0C00203EB504466CB10EA1B5
:1052A000D1E900208968CDE9002002916A460921F0
:1052B0004FF4976001F0A6FD3EBD0AA2D2E90010AE
:1052C0009268CDE9010200916A4609214FF4976086
:1052D00001F098FDF0E70000B8AAB38DB4980D3541
:1052E0005D000000B8AAAAAAB088C3C5C700000024
:1052F00038B5044664B1C0208DF80000C2208DF896
:105300000100C4208DF80200C6208DF8030004E0DF
:105310008B2204216846FAF7BBFF6A46042140F657
:10532000982001F06FFD01F0E7F938BD10B5C823F2
:105330004FF48062024940F6F63001F077F810BD74
:1053400000A100082DE9F04F8DB0074688461546AC
:105350009946DDE9166B0024002030806B49887B7C
:105360005A4605A901F028F918B1601E0DB0BDE834
:10537000F08F6648807A00F01400002867D09DF80E
:10538000140000069DF8151040EA01409DF8161023
:1053900040EA01209DF81710084328609DF8180086
:1053A00000069DF8191040EA01409DF81A1040EAE5
:1053B00001209DF81B10084368609DF81C00000642
:1053C0009DF81D1040EA01409DF81E1040EA0120A2
:1053D0009DF81F100843A8609DF8200000069DF866
:1053E000211040EA01409DF8221040EA01209DF87A
:1053F00023100843E86004F11000C4B228680014C8
:105400000190686800140290A86800140390E8688E
:105410000014049001984043029901FB0100039994
:1054200001FB0100049901FB010ABAF1706F02DB74
:10543000BAF1885F05DD01F05FF900203080401E81
:1054400094E7B6F9000040F48070308000BF2F4828
:10545000807A00F0400020B305A9601C085C095D5B
:1054600040EA012000B2A8F8000005A9E01C095C90
:1054700005AAA01C105C41EA002000B2A8F80200B6
:1054800005A9601D095C201D105C41EA002000B2E6
:10549000A8F80400A01DC4B2B6F9000040F008004E
:1054A00030801A48408900F4C07008B305A9601C18
:1054B000085C095D40EA012000B2388005A9E01CC3
:1054C000095C05AAA01C105C41EA002000B27880AB
:1054D00005A9601D095C201D105C41EA002000B296
:1054E000B880A01DC4B2B6F9000040F07000308052
:1054F0000648807A00F0030018B105A90819FFF7E3
:105500006DFD484600F0D4FA00202FE76C0C002017
:1055100030B585B0044616A207CA02AB07C3C82C33
:1055200003DD4FF0FF3005B030BDC82090FBF4F034
:10553000401E85B2280A8DF80000E8B28DF80100FF
:105540006A46022140F2162001F05CFC10B14FF0D7
:10555000FF30E8E702AA0C2140F6C12001F052FC1E
:1055600010B14FF0FF30DEE7044884810020DAE715
:10557000FEF2ABC4AAF1DFDFBBAFDFDF6C0C0020B3
:1055800010B586B0044647A00068039046A00068A6
:10559000029046A00068019045A00068009004F0C9
:1055A000030003A9085C8DF8140003A8C4F3C1012B
:1055B000405C8DF8150003A8C4F38111405C8DF8A0
:1055C000160004F0030002A9085C8DF8100002A880
:1055D000C4F3C101405C8DF8110002A8C4F381112D
:1055E000405C8DF8120005AA032140F2264001F02C
:1055F00009FC18B14FF0FF3006B010BD04AA03211A
:1056000040F22A4001F0FEFB10B14FF0FF30F3E70B
:10561000019805900098049004F0040058B19DF89A
:10562000140040F001008DF814009DF8100040F0C7
:1056300001008DF8100004F0200058B19DF815000D
:1056400040F001008DF815009DF8110040F00100B8
:105650008DF8110004F4807058B19DF8160040F0E8
:1056600001008DF816009DF8120040F001008DF841
:10567000120005AA03214FF4886001F0C3FB10B1AA
:105680004FF0FF30B8E704AA032140F2314001F0A7
:10569000B9FB10B14FF0FF30AEE70648048100209F
:1056A000AAE700004CCD6C000CC92C0036567600E1
:1056B000264666006C0C0020F8B505460E464FF4F1
:1056C0007A7095FBF0F000FB06F4200E8DF80000D8
:1056D000200C8DF80100200A8DF80200E0B28DF850
:1056E00003006A4604214FF4AE7001F08BFBF8BD55
:1056F00038B50446052094FBF0F084B220128DF8F2
:105700000000E0B28DF801006A4602214FF4AD704E
:1057100001F078FB38BD38B50446052094FBF0F065
:1057200084B220128DF80000E0B28DF801006A46C4
:1057300002214FF4AC7001F065FB38BD38B504466A
:105740000020009004F0010020B19DF8000040F01E
:105750003000009004F0020020B19DF8000040F0FD
:105760000C00009004F0040020B19DF8000040F00F
:10577000030000906A4601214FF4A47001F042FB3F
:1057800038BD38B50446012C01DA012402E0042CAE
:1057900000DD0424601EC0B200906A46012140F280
:1057A0004F1001F02FFB38BD2DE9FC4706460F4690
:1057B00006F0070010B1B7F5C86F03DD4FF0FF30FA
:1057C000BDE8FC873846FAF7DBFF81465949FAF70E
:1057D00008FE8046684600F053FD9DF80000022850
:1057E00006D0042816D0082826D0102848D135E045
:1057F0004FF08D414046FAF7C2FD8146FAF7FCFFB3
:1058000084B24D494046FAF7BAFD8146FAF7F4FFF3
:1058100085B238E04FF08C414046FAF7B0FD814642
:10582000FAF7EAFF84B245494046FAF7A8FD8146F7
:10583000FAF7E2FF85B226E04FF08B414046FAF7D7
:105840009EFD8146FAF7D8FF84B23D494046FAF7FB
:1058500096FD8146FAF7D0FF85B214E04FF08A41F9
:105860004046FAF78CFD8146FAF7C6FF84B2354907
:105870004046FAF784FD8146FAF7BEFF85B202E0A2
:105880004FF0FF309CE700BF20128DF80400E0B21B
:105890008DF8050028128DF80600E8B28DF8070093
:1058A00006F00100A0B101AA02214FF4EA7001F054
:1058B000A9FA10B14FF0FF3082E70DF10602022184
:1058C0004FF4927001F09EFA10B14FF0FF3077E77D
:1058D00006F00200A0B101AA02214FF4EC7001F021
:1058E00091FA10B14FF0FF306AE70DF10602022184
:1058F0004FF4947001F086FA10B14FF0FF305FE77B
:1059000006F00400A0B101AA02214FF4EE7001F0EC
:1059100079FA10B14FF0FF3052E70DF10602022183
:105920004FF4967001F06EFA10B14FF0FF3047E778
:10593000002045E700004843000040460000C04505
:10594000000040450000C04438B50446052094FBE3
:10595000F0F085B228128DF80000E8B28DF8010051
:105960006A4602214FF4EF7001F04CFA38BD38B5A9
:105970000446052094FBF0F085B228128DF8000053
:10598000E8B28DF801006A4602214FF4ED7001F093
:1059900039FA38BD7FB501210F20FBF763FCFBF717
:1059A000F5FC02F01FFEFDF7A0FE2A4800906846B5
:1059B00000F0BEFC40B100BFC822274927A0FEF777
:1059C0000FFF00BF00BFFEE7782001F0B3F9782099
:1059D00000F01EFC642001F05FF902A800F098FCC2
:1059E00001A800F073FC03A800F04AFC264800213F
:1059F00001604160018103202349087004208880F0
:105A0000FFF794FC214C204600F0A3FB0546E01C68
:105A100000F09FFB45EAC00085B2A01D00F099FB95
:105A200045EA801085B200BF2E463046FFF7A8FD3C
:105A300040F273101449C880C888FFF71FFB642028
:105A4000FFF766FD012001F023F801200E494870A0
:105A50007FBD0000B55C000850AE00083C3C2D4DF9
:105A600050552D4C4F47452D3E3E205B25735D2004
:105A70005B25645D6D707520696E6974206661696F
:105A80006C65640D0A0A00007C0C002034000020C4
:105A900070B505460C460548844203D1284602F0FD
:105AA00035FE70BD4FF0FF30FBE7000038020020EC
:105AB00010B50446FCF7F6FC2060002010BD000085
:105AC0002DE9FC474FF0000A14E04C4830F81A006A
:105AD000B0F54E6F02DB0120BDE8FC8747480A3075
